:020000020000FC
:0200000078C0C6
:1000A80000C00FB70F9300FE0EC0643030F0442735
:1000B80048B9E894442700F806C048B9BB0FC6956C
:1000C8004B2F4C2B639501FE0DC0783030F055272F
:1000D80050930801E89401F805C050930801220FD5
:1000E800522F73950F910FBF18950FEF0DBF01E2B7
:1000F8000EBF0FEF10E007B90093070118B910936E
:10010800080100E502B9089A10980CE014E300937E
:10011800A9001093A80000E00093A0000DE0009350
:10012800A10002E000937200002400271127222773
:10013800CC274427BB276627552777278827992761
:10014800AA277894E894049B03C01CD0049B06D08B
:10015800069BF8CF17D0069B0AD0F4CF6627B1E0EC
:10016800C0E84B2F4C2B689400F808D008957727E7
:1001780021E0522F689401F801D00895109A02D016
:10018800109808958FEF9FEFA1E081509040A04014
:04019800E0F70895EF
:00000001FF
