:100000000C9435000C945D000C945D000C945D0024
:100010000C945D000C945D000C945D000C945D00EC
:100020000C945D000C945D000C945D000C945D00DC
:100030000C945D000C945D000C945D000C945D00CC
:100040000C941B020C945D000C94E9010C94C30108
:100050000C9465020C945D000C945D000C945D00A2
:100060000C945D000C945D00940311241FBECFEF2F
:10007000D8E0DEBFCDBF12E0A0E0B1E0E2E9F7E0FA
:1000800002C005900D92A032B107D9F722E0A0E29C
:10009000B2E001C01D92A83CB207E1F710E0C5E351
:1000A000D0E004C02197FE010E94C103C433D107F0
:1000B000C9F70E9470020C94C7030C940000AF9221
:1000C000BF92CF92DF92EF92FF920F931F93CF9345
:1000D000DF936C017B018B01040F151FEB015E01A7
:1000E000AE18BF08C017D10759F06991D601ED913C
:1000F000FC910190F081E02DC6010995892B79F7DB
:10010000C501DF91CF911F910F91FF90EF90DF908C
:10011000CF90BF90AF900895FC01538D448D252F53
:1001200030E0842F90E0821B930B541710F0CF9691
:10013000089501970895FC01918D828D981761F0C3
:10014000A28DAE0FBF2FB11D5D968C91928D9F5FDA
:100150009F73928F90E008958FEF9FEF0895FC01B9
:10016000918D828D981731F0828DE80FF11D858D6C
:1001700090E008958FEF9FEF0895FC01918D228DFF
:10018000892F90E0805C9F4F821B91098F73992784
:1001900008958BE292E00E94BD0021E0892B09F4D2
:1001A00020E0822F089580E090E0892B29F00E94C2
:1001B000C90081110C9400000895FC01A48DA80FC2
:1001C000B92FB11DA35ABF4F2C91848D90E0019699
:1001D0008F739927848FA689B7892C93A089B189B9
:1001E0008C91837080648C93938D848D981306C05A
:1001F0000288F389E02D80818F7D80830895EF92BE
:10020000FF920F931F93CF93DF93EC0181E0888FD0
:100210009B8D8C8D98131AC0E889F989808185FFA0
:1002200015C09FB7F894EE89FF896083E889F98942
:1002300080818370806480839FBF81E090E0DF9144
:10024000CF911F910F91FF90EF900895F62E0B8D97
:1002500010E00F5F1F4F0F731127E02E8C8D8E1152
:100260000CC00FB607FCFACFE889F989808185FFB9
:10027000F5CFCE010E94DD00F1CFEB8DEC0FFD2F0D
:10028000F11DE35AFF4FF0829FB7F8940B8FEA8974
:10029000FB8980818062CFCFCF93DF93EC01888D83
:1002A0008823B9F0AA89BB89E889F9898C9185FDF1
:1002B00003C0808186FD0DC00FB607FCF7CF8C917F
:1002C00085FFF2CF808185FFEDCFCE010E94DD005A
:1002D000E9CFDF91CF9108953FB7F894809125023F
:1002E00090912602A0912702B091280226B5A89BE2
:1002F00005C02F3F19F00196A11DB11D3FBFBA2FB8
:10030000A92F982F8827BC01CD01620F711D811D77
:10031000911D42E0660F771F881F991F4A95D1F7FC
:1003200008958F929F92AF92BF92CF92DF92EF92F9
:10033000FF924B015C010E946C016B017C010E94E9
:100340006C016C197D098E099F09683E7340810517
:100350009105A8F321E0821A9108A108B10888EE5E
:10036000C80E83E0D81EE11CF11C81149104A10485
:10037000B10429F7FF90EF90DF90CF90BF90AF903E
:100380009F908F9008951F920F920FB60F92112495
:100390002F933F934F935F936F937F938F939F938D
:1003A000AF93BF93EF93FF938BE292E00E94DD0047
:1003B000FF91EF91BF91AF919F918F917F916F913D
:1003C0005F914F913F912F910F900FBE0F901F9013
:1003D00018951F920F920FB60F9211242F938F939F
:1003E0009F93EF93FF93E0913B02F0913C02808159
:1003F000E0914102F091420282FD1BC09081809108
:1004000044028F5F8F7320914502821741F0E09183
:100410004402F0E0E55DFD4F958F80934402FF912B
:10042000EF919F918F912F910F900FBE0F901F9082
:1004300018958081F4CF1F920F920FB60F9211245E
:100440002F933F938F939F93AF93BF9380912102FC
:1004500090912202A0912302B091240230912002B7
:1004600023E0230F2D3758F50196A11DB11D2093D0
:1004700020028093210290932202A0932302B09342
:1004800024028091250290912602A0912702B0912A
:1004900028020196A11DB11D80932502909326028A
:1004A000A0932702B0932802BF91AF919F918F91A3
:1004B0003F912F910F900FBE0F901F90189526E837
:1004C000230F0296A11DB11DD2CF1F920F920FB61E
:1004D0000F9211245A980F900FBE0F901F901895ED
:1004E000CF93DF93CDB7DEB72C970FB6F894DEBF6E
:1004F0000FBECDBF789484B5826084BD84B5816021
:1005000084BD85B5826085BD85B5816085BD8091DE
:100510006E00816080936E00109281008091810056
:10052000826080938100809181008160809381004E
:10053000809180008160809380008091B100846010
:100540008093B1008091B00081608093B000809171
:100550007A00846080937A0080917A008260809330
:100560007A0080917A00816080937A0080917A008D
:10057000806880937A001092C10068EE73E080E09A
:1005800090E00E94910187E08AB988EF8BB9E091F1
:100590003B02F0913C0282E08083E0913702F091CF
:1005A00038021082E0913902F0913A028FEC808398
:1005B00010924302E0913F02F091400286E0808376
:1005C000E0913D02F0913E02808180618083E09164
:1005D0003D02F0913E02808188608083E0913D027F
:1005E000F0913E02808180688083E0913D02F0912D
:1005F0003E0280818F7D80838091C10084648093DE
:10060000C1008091C00081608093C00061E070E013
:1006100080E090E00E94910185EA80932A02AE0179
:100620004F5F5F4F6A015E015DE0A50EB11C80E087
:10063000882E80E0982E7724739489B18BE292E023
:100640000E94BD00892BA9F08BE292E00E949B00E2
:10065000909100019923B9F090912A02981309C052
:1006600010920001709229028091C0008E7F8093C9
:10067000C0008114910409F30E94C9008823E9F2A3
:100680000E940000DACF80912902882391F3109212
:100690002902709200015A9A61E070E080E090E0D7
:1006A0000E9491018CE0E1E0F1E0D60101900D9211
:1006B0008A95E1F720E090E080E0E22FE927F0E082
:1006C000E15EFE4F3081E32FF82FCF012F5F2A30FC
:1006D000A1F79B878C87F12CE12C8601F2E0EF16C5
:1006E000F10439F46EE2C016D10669F0F8016081B8
:1006F0000AC043E0E416F104C9F7C8018C199D094A
:1007000061E7019799F78BE292E00E94FF000F5F8B
:100710001F4FA016B10611F7FFEFEF1AFF0A45E0D1
:10072000E416F104D1F6A5CFEBE2F2E013821282D7
:1007300088EE93E0A0E0B0E084839583A683B7833E
:1007400081E191E09183808385EC90E095878487B7
:1007500084EC90E09787868780EC90E0918B808B8B
:1007600081EC90E0938B828B82EC90E0958B848B74
:1007700086EC90E0978B868B118E128E138E148EE2
:100780000895EE0FFF1F0590F491E02D0994F89461
:02079000FFCF99
:10079200010106FF0100FF0200000100000000004D
:1007A20000FF005F008C004C01BD009B00AF000009
:1007B2001D3A2774694E53E8F5D2CF9C81A6BBCD72
:1007C200D0F7EAB9A4839E25381F02514C6B768775
:1007D2009ABDA0F3EEC9D46F7255481B06213C4A5C
:1007E20057706D3E230419A2BF9885D6CBECF11346
:1007F2000E2934677A5D40FBE6C1DC8F92B5A8DE34
:10080200C3E4F9AAB7908D362B0C11425F78659438
:1008120089AEB3E0FDDAC77C61465B0815322F5919
:1008220044637E2D30170AB1AC8B96C5D8FFE22601
:100832003B1C01524F6875CED3F4E9BAA7809DEBF9
:10084200F6D1CC9F82A5B8031E3924776A4D50A1F8
:10085200BC9B86D5C8EFF24954736E3D20071A6CD3
:1008620071564B1805223F8499BEA3F0EDCAD735C5
:10087200280F12415C7B66DDC0E7FAA9B4938EF8BB
:10088200E5C2DF8C91B6AB100D2A3764795E43B2B4
:10089200AF8895C6DBFCE15A47607D2E3314097F91
:1008A2006245580B16312C978AADB0E3FED9C400CD
:00000001FF
