:100000000C9483000C94B4000C94B4000C94B400D1
:100010000C94B4000C94B4000C94B4000C94B40090
:100020000C94B4000C94B4000C94B4000C94B40080
:100030000C94B4000C94B4000C94B4000C94B40070
:100040000C94B4000C94B4000C94B4000C94B40060
:100050000C94B4000C94B4000C94B4000C94A10261
:100060000C94B4000C946B020C9441020C94B400F8
:100070000C94B4000C94B4000C94B4000C94B40030
:100080000C94B4000C94B4000C94B4000C94B40020
:100090000C94B4000C94B4000C94B4000C94B40010
:1000A0000C94B4000C94B4000C94B4000C94B40000
:1000B0000C94B4000C94B4000C94B4000C94B400F0
:1000C0000C94B4000C94B4000C94B4000C94B400E0
:1000D0000C94B4000C94B4000C94B4000C94B400D0
:1000E0000C94B4000C9406010C9499010C943C04FB
:1000F0000C944C010C9414010C94B6000C94E30085
:100100000C94F2003C0411241FBECFEFD1E2DEBFFD
:10011000CDBF00E00CBF13E0A0E0B2E0E6EEF8E0F7
:1001200000E00BBF02C007900D92A032B107D9F7D3
:1001300023E0A0E2B3E001C01D92A83CB207E1F7C2
:1001400010E0C3E8D0E000E006C021970109802F4D
:10015000FE010E946904C238D10780E00807A9F7B0
:100160000E94F6020C9471040C940000AF92BF92AE
:10017000CF92DF92EF92FF920F931F93CF93DF9373
:100180006C017B018B01040F151FEB015E01AE18A2
:10019000BF08C017D10759F06991D601ED91FC91C4
:1001A0000190F081E02DC6011995892B79F7C501E1
:1001B000DF91CF911F910F91FF90EF90DF90CF9043
:1001C000BF90AF900895FC01538D448D252F30E0F2
:1001D000842F90E0821B930B541710F0CF96089554
:1001E00001970895FC01918D828D981761F0A28D81
:1001F000AE0FBF2FB11D5D968C91928D9F5F9F7347
:10020000928F90E008958FEF9FEF0895FC01918DFC
:10021000828D981731F0828DE80FF11D858D90E069
:1002200008958FEF9FEF0895FC01918D228D892F06
:1002300090E0805C9F4F821B91098F7399270895EE
:100240008BE293E00E94140121E0892B09F420E065
:10025000822F0895FC01A48DA80FB92FB11DA35AB8
:10026000BF4F2C91848D90E001968F739927848FD6
:10027000A689B7892C93A089B1898C9183708064F9
:100280008C93938D848D981306C00288F389E02D9A
:1002900080818F7D80830895EF92FF920F931F934B
:1002A000CF93DF93EC0181E0888F9B8D8C8D981329
:1002B0001AC0E889F989808185FF15C09FB7F89435
:1002C000EE89FF896083E889F98980818370806481
:1002D00080839FBF81E090E0DF91CF911F910F91CC
:1002E000FF90EF900895F62E0B8D10E00F5F1F4FDB
:1002F0000F731127E02E8C8D8E110CC00FB607FCEA
:10030000FACFE889F989808185FFF5CFCE010E9477
:100310002A01F1CFEB8DEC0FFD2FF11DE35AFF4FBA
:10032000F0829FB7F8940B8FEA89FB898081806205
:10033000CFCFCF93DF93EC01888D8823B9F0AA89C2
:10034000BB89E889F9898C9185FD03C0808186FD90
:100350000DC00FB607FCF7CF8C9185FFF2CF8081DF
:1003600085FFEDCFCE010E942A01E9CFDF91CF9129
:10037000089580E090E0892B29F00E9420018111EE
:100380000E94000080E090E0892B49F080E090E03E
:10039000892B29F00E94000081110E94000080E05A
:1003A00090E0892B49F080E090E0892B29F00E94B1
:1003B000000081110E94000080E090E0892B49F04C
:1003C00080E090E0892B29F00E94000081110C94BC
:1003D000000008953FB7F89480912503909126037B
:1003E000A0912703B091280326B5A89B05C02F3FF5
:1003F00019F00196A11DB11D3FBFBA2FA92F982F4B
:100400008827BC01CD01620F711D811D911D42E045
:10041000660F771F881F991F4A95D1F708958F920D
:100420009F92AF92BF92CF92DF92EF92FF924B01D9
:100430005C010E94EA016B017C010E94EA016C19D7
:100440007D098E099F09683E734081059105A8F3D7
:1004500021E0821A9108A108B10888EEC80E83E055
:10046000D81EE11CF11C81149104A104B10429F7E8
:10047000FF90EF90DF90CF90BF90AF909F908F90C4
:1004800008951F920F920FB60F9211240BB60F9280
:100490002F933F934F935F936F937F938F939F938C
:1004A000AF93BF93EF93FF938BE293E00E942A01F7
:1004B000FF91EF91BF91AF919F918F917F916F913C
:1004C0005F914F913F912F910F900BBE0F900FBEF8
:1004D0000F901F9018951F920F920FB60F92112434
:1004E0000BB60F922F938F939F93EF93FF93E0910F
:1004F0003B03F0913C038081E0914103F091420382
:1005000082FD1DC09081809144038F5F8F73209185
:100510004503821741F0E0914403F0E0E55DFC4FB4
:10052000958F80934403FF91EF919F918F912F912D
:100530000F900BBE0F900FBE0F901F9018958081EB
:10054000F2CF1F920F920FB60F9211242F933F9369
:100550008F939F93AF93BF93809121039091220338
:10056000A0912303B09124033091200323E0230FB3
:100570002D3758F50196A11DB11D209320038093BE
:10058000210390932203A0932303B093240380912B
:10059000250390912603A0912703B091280301968B
:1005A000A11DB11D8093250390932603A0932703DB
:1005B000B0932803BF91AF919F918F913F912F915D
:1005C0000F900FBE0F901F90189526E8230F0296EC
:1005D000A11DB11DD2CF1F920F920FB60F92112401
:1005E0005A980F900FBE0F901F901895CF93DF93DE
:1005F000CDB7DEB72C970FB6F894DEBF0FBECDBFD8
:10060000789484B5826084BD84B5816084BD85B5ED
:10061000826085BD85B5816085BD80916E008160F9
:1006200080936E001092810080918100826080939F
:1006300081008091810081608093810080918000A1
:100640008160809380008091B10084608093B100CC
:100650008091B00081608093B000809191008260B1
:1006600080939100809191008160809391008091AE
:1006700090008160809390008091A10082608093BF
:10068000A1008091A10081608093A1008091A000D1
:1006900081608093A000809121018260809321017C
:1006A00080912101816080932101809120018160EE
:1006B0008093200180917A00846080937A008091F9
:1006C0007A00826080937A0080917A0081608093C2
:1006D0007A0080917A00806880937A001092C1003D
:1006E00068EE73E080E090E00E940F0287E08AB934
:1006F00088EF8BB9E0913B03F0913C0382E080836B
:10070000E0913703F09138031082E0913903F091C2
:100710003A038FEC808310924303E0913F03F09102
:10072000400386E08083E0913D03F0913E038081A9
:1007300080618083E0913D03F0913E038081886079
:100740008083E0913D03F0913E0380818068808347
:10075000E0913D03F0913E0380818F7D8083809105
:10076000C10084648093C1008091C0008160809347
:10077000C00061E070E080E090E00E940F0285EA36
:1007800080932A0399249394AE014F5F5F4F6A01CF
:100790005E015DE0A50EB11C89B18BE293E00E9481
:1007A0001401892BA9F08BE293E00E94F200909152
:1007B0000002992381F090912A03981309C01092A6
:1007C0000002909229038091C0008E7F8093C00028
:1007D0000E94B901E1CF809129038823C9F31092C7
:1007E0002903909200025A9A61E070E080E090E064
:1007F0000E940F028CE0E1E0F2E0D60101900D9240
:100800008A95E1F720E090E080E0E22FE927F0E030
:10081000E15EFD4F3081E32FF82FCF012F5F2A30AB
:10082000A1F79B878C87F12CE12C8601F2E0EF1673
:10083000F10439F46EE2C016D10669F0F801608166
:100840000AC043E0E416F104C9F7C8018C199D09F8
:1008500061E7019799F78BE293E00E944C010F5FEB
:100860001F4FA016B10611F7FFEFEF1AFF0A45E080
:10087000E416F104D1F6ACCFEBE2F3E0138212827E
:1008800088EE93E0A0E0B0E084839583A683B783ED
:1008900081E192E09183808385EC90E09587848765
:1008A00084EC90E09787868780EC90E0918B808B3A
:1008B00081EC90E0938B828B82EC90E0958B848B23
:1008C00086EC90E0978B868B118E128E138E148E91
:1008D0000895EE0FFF1F881F8BBF0790F691E02D44
:0608E0001994F894FFCF0B
:1008E600010106FF0100FF020000010000000000F8
:1008F600004C01B600E30099011401F20006010064
:100906001D3A2774694E53E8F5D2CF9C81A6BBCD1C
:10091600D0F7EAB9A4839E25381F02514C6B76871F
:100926009ABDA0F3EEC9D46F7255481B06213C4A06
:1009360057706D3E230419A2BF9885D6CBECF113F0
:100946000E2934677A5D40FBE6C1DC8F92B5A8DEDE
:10095600C3E4F9AAB7908D362B0C11425F786594E3
:1009660089AEB3E0FDDAC77C61465B0815322F59C4
:1009760044637E2D30170AB1AC8B96C5D8FFE226AC
:100986003B1C01524F6875CED3F4E9BAA7809DEBA4
:10099600F6D1CC9F82A5B8031E3924776A4D50A1A3
:1009A600BC9B86D5C8EFF24954736E3D20071A6C7E
:1009B60071564B1805223F8499BEA3F0EDCAD73570
:1009C600280F12415C7B66DDC0E7FAA9B4938EF866
:1009D600E5C2DF8C91B6AB100D2A3764795E43B25F
:1009E600AF8895C6DBFCE15A47607D2E3314097F3C
:1009F6006245580B16312C978AADB0E3FED9C40078
:00000001FF
