:100000000C9483000C94B4000C94B4000C94B400D1
:100010000C94B4000C94B4000C94B4000C94B40090
:100020000C94B4000C94B4000C94B4000C94B40080
:100030000C94B4000C94B4000C94B4000C94B40070
:100040000C94B4000C94B4000C94B4000C94B40060
:100050000C94B4000C94B4000C94B4000C94A10261
:100060000C94B4000C946B020C9441020C94B400F8
:100070000C94B4000C94B4000C94B4000C94B40030
:100080000C94B4000C94B4000C94B4000C94B40020
:100090000C94B4000C94B4000C94B4000C94B40010
:1000A0000C94B4000C94B4000C94B4000C94B40000
:1000B0000C94B4000C94B4000C94B4000C94B400F0
:1000C0000C94B4000C94B4000C94B4000C94B400E0
:1000D0000C94B4000C94B4000C94B4000C94B400D0
:1000E0000C94B4000C9406010C9499010C944C01EE
:1000F0000C9414010C943D040C94B6000C94E30091
:100100000C94F2003D0411241FBECFEFD1E2DEBFFC
:10011000CDBF00E00CBF13E0A0E0B2E0E8EEF8E0F5
:1001200000E00BBF02C007900D92A233B107D9F7D0
:1001300023E0A2E3B3E001C01D92AA3DB207E1F7BC
:1001400010E0C3E8D0E000E006C021970109802F4D
:10015000FE010E946A04C238D10780E00807A9F7AF
:100160000E94F6020C9472040C940000AF92BF92AD
:10017000CF92DF92EF92FF920F931F93CF93DF9373
:100180006C017B018B01040F151FEB015E01AE18A2
:10019000BF08C017D10759F06991D601ED91FC91C4
:1001A0000190F081E02DC6011995892B79F7C501E1
:1001B000DF91CF911F910F91FF90EF90DF90CF9043
:1001C000BF90AF900895FC01538D448D252F30E0F2
:1001D000842F90E0821B930B541710F0CF96089554
:1001E00001970895FC01918D828D981761F0A28D81
:1001F000AE0FBF2FB11D5D968C91928D9F5F9F7347
:10020000928F90E008958FEF9FEF0895FC01918DFC
:10021000828D981731F0828DE80FF11D858D90E069
:1002200008958FEF9FEF0895FC01918D228D892F06
:1002300090E0805C9F4F821B91098F7399270895EE
:100240008DE393E00E94140121E0892B09F420E062
:10025000822F0895FC01A48DA80FB92FB11DA35AB8
:10026000BF4F2C91848D90E001968F739927848FD6
:10027000A689B7892C93A089B1898C9183708064F9
:100280008C93938D848D981306C00288F389E02D9A
:1002900080818F7D80830895EF92FF920F931F934B
:1002A000CF93DF93EC0181E0888F9B8D8C8D981329
:1002B0001AC0E889F989808185FF15C09FB7F89435
:1002C000EE89FF896083E889F98980818370806481
:1002D00080839FBF81E090E0DF91CF911F910F91CC
:1002E000FF90EF900895F62E0B8D10E00F5F1F4FDB
:1002F0000F731127E02E8C8D8E110CC00FB607FCEA
:10030000FACFE889F989808185FFF5CFCE010E9477
:100310002A01F1CFEB8DEC0FFD2FF11DE35AFF4FBA
:10032000F0829FB7F8940B8FEA89FB898081806205
:10033000CFCFCF93DF93EC01888D8823B9F0AA89C2
:10034000BB89E889F9898C9185FD03C0808186FD90
:100350000DC00FB607FCF7CF8C9185FFF2CF8081DF
:1003600085FFEDCFCE010E942A01E9CFDF91CF9129
:10037000089580E090E0892B29F00E9420018111EE
:100380000E94000080E090E0892B49F080E090E03E
:10039000892B29F00E94000081110E94000080E05A
:1003A00090E0892B49F080E090E0892B29F00E94B1
:1003B000000081110E94000080E090E0892B49F04C
:1003C00080E090E0892B29F00E94000081110C94BC
:1003D000000008953FB7F894809137039091380357
:1003E000A0913903B0913A0326B5A89B05C02F3FD1
:1003F00019F00196A11DB11D3FBFBA2FA92F982F4B
:100400008827BC01CD01620F711D811D911D42E045
:10041000660F771F881F991F4A95D1F708958F920D
:100420009F92AF92BF92CF92DF92EF92FF924B01D9
:100430005C010E94EA016B017C010E94EA016C19D7
:100440007D098E099F09683E734081059105A8F3D7
:1004500021E0821A9108A108B10888EEC80E83E055
:10046000D81EE11CF11C81149104A104B10429F7E8
:10047000FF90EF90DF90CF90BF90AF909F908F90C4
:1004800008951F920F920FB60F9211240BB60F9280
:100490002F933F934F935F936F937F938F939F938C
:1004A000AF93BF93EF93FF938DE393E00E942A01F4
:1004B000FF91EF91BF91AF919F918F917F916F913C
:1004C0005F914F913F912F910F900BBE0F900FBEF8
:1004D0000F901F9018951F920F920FB60F92112434
:1004E0000BB60F922F938F939F93EF93FF93E0910F
:1004F0004D03F0914E038081E0915303F09154033A
:1005000082FD1DC09081809156038F5F8F73209173
:100510005703821741F0E0915603F0E0E35CFC4F93
:10052000958F80935603FF91EF919F918F912F911B
:100530000F900BBE0F900FBE0F901F9018958081EB
:10054000F2CF1F920F920FB60F9211242F933F9369
:100550008F939F93AF93BF93809133039091340314
:10056000A0913503B09136033091320323E0230F7D
:100570002D3758F50196A11DB11D209332038093AC
:10058000330390933403A0933503B09336038091E3
:10059000370390913803A0913903B0913A03019643
:1005A000A11DB11D8093370390933803A0933903A5
:1005B000B0933A03BF91AF919F918F913F912F914B
:1005C0000F900FBE0F901F90189526E8230F0296EC
:1005D000A11DB11DD2CF1F920F920FB60F92112401
:1005E0005A980F900FBE0F901F901895CF93DF93DE
:1005F000CDB7DEB76F970FB6F894DEBF0FBECDBF95
:10060000789484B5826084BD84B5816084BD85B5ED
:10061000826085BD85B5816085BD80916E008160F9
:1006200080936E001092810080918100826080939F
:1006300081008091810081608093810080918000A1
:100640008160809380008091B10084608093B100CC
:100650008091B00081608093B000809191008260B1
:1006600080939100809191008160809391008091AE
:1006700090008160809390008091A10082608093BF
:10068000A1008091A10081608093A1008091A000D1
:1006900081608093A000809121018260809321017C
:1006A00080912101816080932101809120018160EE
:1006B0008093200180917A00846080937A008091F9
:1006C0007A00826080937A0080917A0081608093C2
:1006D0007A0080917A00806880937A001092C1003D
:1006E00068EE73E080E090E00E940F0287E08AB934
:1006F00088EF8BB9E0914D03F0914E0382E0808347
:10070000E0914903F0914A031082E0914B03F0918C
:100710004C038FEC808310925503E0915103F091CC
:10072000520386E08083E0914F03F0915003808173
:1007300080618083E0914F03F09150038081886055
:100740008083E0914F03F091500380818068808323
:10075000E0914F03F091500380818F7D80838091E1
:10076000C10084648093C1008091C0008160809347
:10077000C00061E070E080E090E00E940F028BE931
:1007800080933C0399249394AE014F5F5F4F6A01BD
:100790005E0150E2A50EB11C8DE393E00E941401AE
:1007A000892BA9F08DE393E00E94F2009091000262
:1007B000992381F090913C03981309C01092000294
:1007C00090923B038091C0008E7F8093C0000E9476
:1007D000B901E2CF80913B038823C9F310923B0318
:1007E000909200025A9A61E070E080E090E00E94EE
:1007F0000F028FE1E1E0F2E0D60101900D928A95BF
:10080000E1F720E090E080E0E22FE927F0E0EE5C05
:10081000FD4F3081E32FF82FCF012F5F2D31A1F74E
:100820009E8F8F8FF12CE12C8601F1E0EF16F10401
:1008300049F4C8018C199D096EE14C9769F0F801E3
:1008400060810AC044E0E416F104C9F7C8018C19BC
:100850009D096BE2049799F78DE393E00E944C01A8
:100860000F5F1F4FA016B10601F7FFEFEF1AFF0A47
:1008700045E0E416F104C1F6AACFEDE3F3E01382FC
:10088000128288EE93E0A0E0B0E084839583A68393
:10089000B78384E292E09183808385EC90E0958732
:1008A000848784EC90E09787868780EC90E0918B3A
:1008B000808B81EC90E0938B828B82EC90E0958B27
:1008C000848B86EC90E0978B868B118E128E138E24
:1008D000148E0895EE0FFF1F881F8BBF0790F691AF
:0808E000E02D1994F894FFCFFC
:1008E80001010203020402050607080205000906C1
:1008F800160206000B050C0B060B050D0E0F00006B
:10090800000000004C01B600E30099011401F20058
:100918000601001D3A2774694E53E8F5D2CF9C8131
:10092800A6BBCDD0F7EAB9A4839E25381F02514C47
:100938006B76879ABDA0F3EEC9D46F7255481B0633
:10094800213C4A57706D3E230419A2BF9885D6CB27
:10095800ECF1130E2934677A5D40FBE6C1DC8F9217
:10096800B5A8DEC3E4F9AAB7908D362B0C11425F07
:1009780078659489AEB3E0FDDAC77C61465B0815FB
:10098800322F5944637E2D30170AB1AC8B96C5D8E7
:10099800FFE2263B1C01524F6875CED3F4E9BAA793
:1009A800809DEBF6D1CC9F82A5B8031E3924776AC7
:1009B8004D50A1BC9B86D5C8EFF24954736E3D20BB
:1009C800071A6C71564B1805223F8499BEA3F0EDA7
:1009D800CAD735280F12415C7B66DDC0E7FAA9B497
:1009E800938EF8E5C2DF8C91B6AB100D2A37647987
:1009F8005E43B2AF8895C6DBFCE15A47607D2E3373
:100A080014097F6245580B16312C978AADB0E3FE66
:020A1800D9C43F
:00000001FF
