:100000000C9435000C945D000C945D000C945D0024
:100010000C945D000C945D000C945D000C945D00EC
:100020000C945D000C945D000C945D000C945D00DC
:100030000C945D000C945D000C945D000C945D00CC
:100040000C941B020C945D000C94E9010C94C30108
:100050000C9465020C945D000C945D000C945D00A2
:100060000C945D000C945D00950311241FBECFEF2E
:10007000D8E0DEBFCDBF12E0A0E0B1E0E4E9F7E0F8
:1000800002C005900D92A233B107D9F722E0A2E396
:10009000B2E001C01D92AA3DB207E1F710E0C5E34E
:1000A000D0E004C02197FE010E94C203C433D107EF
:1000B000C9F70E9470020C94C8030C940000AF9220
:1000C000BF92CF92DF92EF92FF920F931F93CF9345
:1000D000DF936C017B018B01040F151FEB015E01A7
:1000E000AE18BF08C017D10759F06991D601ED913C
:1000F000FC910190F081E02DC6010995892B79F7DB
:10010000C501DF91CF911F910F91FF90EF90DF908C
:10011000CF90BF90AF900895FC01538D448D252F53
:1001200030E0842F90E0821B930B541710F0CF9691
:10013000089501970895FC01918D828D981761F0C3
:10014000A28DAE0FBF2FB11D5D968C91928D9F5FDA
:100150009F73928F90E008958FEF9FEF0895FC01B9
:10016000918D828D981731F0828DE80FF11D858D6C
:1001700090E008958FEF9FEF0895FC01918D228DFF
:10018000892F90E0805C9F4F821B91098F73992784
:1001900008958DE392E00E94BD0021E0892B09F4CF
:1001A00020E0822F089580E090E0892B29F00E94C2
:1001B000C90081110C9400000895FC01A48DA80FC2
:1001C000B92FB11DA35ABF4F2C91848D90E0019699
:1001D0008F739927848FA689B7892C93A089B189B9
:1001E0008C91837080648C93938D848D981306C05A
:1001F0000288F389E02D80818F7D80830895EF92BE
:10020000FF920F931F93CF93DF93EC0181E0888FD0
:100210009B8D8C8D98131AC0E889F989808185FFA0
:1002200015C09FB7F894EE89FF896083E889F98942
:1002300080818370806480839FBF81E090E0DF9144
:10024000CF911F910F91FF90EF900895F62E0B8D97
:1002500010E00F5F1F4F0F731127E02E8C8D8E1152
:100260000CC00FB607FCFACFE889F989808185FFB9
:10027000F5CFCE010E94DD00F1CFEB8DEC0FFD2F0D
:10028000F11DE35AFF4FF0829FB7F8940B8FEA8974
:10029000FB8980818062CFCFCF93DF93EC01888D83
:1002A0008823B9F0AA89BB89E889F9898C9185FDF1
:1002B00003C0808186FD0DC00FB607FCF7CF8C917F
:1002C00085FFF2CF808185FFEDCFCE010E94DD005A
:1002D000E9CFDF91CF9108953FB7F894809137022D
:1002E00090913802A0913902B0913A0226B5A89BAC
:1002F00005C02F3F19F00196A11DB11D3FBFBA2FB8
:10030000A92F982F8827BC01CD01620F711D811D77
:10031000911D42E0660F771F881F991F4A95D1F7FC
:1003200008958F929F92AF92BF92CF92DF92EF92F9
:10033000FF924B015C010E946C016B017C010E94E9
:100340006C016C197D098E099F09683E7340810517
:100350009105A8F321E0821A9108A108B10888EE5E
:10036000C80E83E0D81EE11CF11C81149104A10485
:10037000B10429F7FF90EF90DF90CF90BF90AF903E
:100380009F908F9008951F920F920FB60F92112495
:100390002F933F934F935F936F937F938F939F938D
:1003A000AF93BF93EF93FF938DE392E00E94DD0044
:1003B000FF91EF91BF91AF919F918F917F916F913D
:1003C0005F914F913F912F910F900FBE0F901F9013
:1003D00018951F920F920FB60F9211242F938F939F
:1003E0009F93EF93FF93E0914D02F0914E02808135
:1003F000E0915302F091540282FD1BC090818091E4
:1004000056028F5F8F7320915702821741F0E0915F
:100410005602F0E0E35CFD4F958F80935602FF910A
:10042000EF919F918F912F910F900FBE0F901F9082
:1004300018958081F4CF1F920F920FB60F9211245E
:100440002F933F938F939F93AF93BF9380913302EA
:1004500090913402A0913502B0913602309132026F
:1004600023E0230F2D3758F50196A11DB11D2093D0
:1004700032028093330290933402A0933502B093FA
:1004800036028091370290913802A0913902B091E2
:100490003A020196A11DB11D809337029093380254
:1004A000A0933902B0933A02BF91AF919F918F917F
:1004B0003F912F910F900FBE0F901F90189526E837
:1004C000230F0296A11DB11DD2CF1F920F920FB61E
:1004D0000F9211245A980F900FBE0F901F901895ED
:1004E000CF93DF93CDB7DEB76F970FB6F894DEBF2B
:1004F0000FBECDBF789484B5826084BD84B5816021
:1005000084BD85B5826085BD85B5816085BD8091DE
:100510006E00816080936E00109281008091810056
:10052000826080938100809181008160809381004E
:10053000809180008160809380008091B100846010
:100540008093B1008091B00081608093B000809171
:100550007A00846080937A0080917A008260809330
:100560007A0080917A00816080937A0080917A008D
:10057000806880937A001092C10068EE73E080E09A
:1005800090E00E94910187E08AB988EF8BB9E091F1
:100590004D02F0914E0282E08083E0914902F09199
:1005A0004A021082E0914B02F0914C028FEC808362
:1005B00010925502E0915102F091520286E0808340
:1005C000E0914F02F0915002808180618083E09140
:1005D0004F02F0915002808188608083E0914F0249
:1005E000F0915002808180688083E0914F02F09109
:1005F000500280818F7D80838091C10084648093CC
:10060000C1008091C00081608093C00061E070E013
:1006100080E090E00E9491018BE980933C02AE0162
:100620004F5F5F4F6A015E0150E2A50EB11C80E092
:10063000882E80E0982E772473948DE392E00E94B8
:10064000BD00892BA9F08DE392E00E949B00909160
:1006500000019923B9F090913C02981309C01092BF
:10066000000170923B028091C0008E7F8093C00099
:100670008114910411F30E94C9008823F1F20E94B1
:100680000000DBCF80913B02882391F310923B0264
:10069000709200015A9A61E070E080E090E00E9460
:1006A00091018FE1E1E0F1E0D60101900D928A9590
:1006B000E1F720E090E080E0E22FE927F0E0EE5C57
:1006C000FE4F3081E32FF82FCF012F5F2D31A1F79F
:1006D0009E8F8F8FF12CE12C8601F1E0EF16F10453
:1006E00049F4C8018C199D096EE14C9769F0F80135
:1006F00060810AC044E0E416F104C9F7C8018C190E
:100700009D096BE2049799F78DE392E00E94FF0048
:100710000F5F1F4FA016B10601F7FFEFEF1AFF0A98
:1007200045E0E416F104C1F6A3CFEDE3F2E0138255
:10073000128288EE93E0A0E0B0E084839583A683E4
:10074000B78384E291E09183808385EC90E0958784
:10075000848784EC90E09787868780EC90E0918B8B
:10076000808B81EC90E0938B828B82EC90E0958B78
:10077000848B86EC90E0978B868B118E128E138E75
:10078000148E0895EE0FFF1F0590F491E02D09944B
:04079000F894FFCF0B
:100794000101020302040205060708020500090616
:1007A400160206000B050C0B060B050D0E0F0000C0
:1007B40000000000FF005F008C004C01BD009B00A6
:1007C400AF00001D3A2774694E53E8F5D2CF9C81DF
:1007D400A6BBCDD0F7EAB9A4839E25381F02514C9D
:1007E4006B76879ABDA0F3EEC9D46F7255481B0689
:1007F400213C4A57706D3E230419A2BF9885D6CB7D
:10080400ECF1130E2934677A5D40FBE6C1DC8F926C
:10081400B5A8DEC3E4F9AAB7908D362B0C11425F5C
:1008240078659489AEB3E0FDDAC77C61465B081550
:10083400322F5944637E2D30170AB1AC8B96C5D83C
:10084400FFE2263B1C01524F6875CED3F4E9BAA7E8
:10085400809DEBF6D1CC9F82A5B8031E3924776A1C
:100864004D50A1BC9B86D5C8EFF24954736E3D2010
:10087400071A6C71564B1805223F8499BEA3F0EDFC
:10088400CAD735280F12415C7B66DDC0E7FAA9B4EC
:10089400938EF8E5C2DF8C91B6AB100D2A376479DC
:1008A4005E43B2AF8895C6DBFCE15A47607D2E33C8
:1008B40014097F6245580B16312C978AADB0E3FEBC
:0208C400D9C495
:00000001FF
